:10000000801A0020E9A30200E19A0000E59A0000AE
:10001000A70B0000000000000000FFFF54000000DC
:1000200004180F00000000000000000000000000A5
:1000300000000000000000000000000000000000C0
:10004000000000000000000000000000B0010000FF
:0400500000000000AC
:10005400801A0020E9A30200E19A0000E59A00005A
:10006400A70A0A010002000004180FAC5065B00191
:10007400000000000000000000000000000000007C
:10008400000000000000000000000000000000006C
:100094000000000000000000FFFFFFFFFFFFFFFF64
:1000A400FFFFFFFF006007000000000000E0070002
:1000B400FFFFFFFFFFFFFFFF8000000000000000C4
:1000C400000000000000000000000000000000002C
:1000D400A8480020A83C0020A83C0020A83C002000
:1000E400801A0020C8820300ECCC020020110020FA
:0C00F400E410002000E00700A8480020F5
:10020000801A0020E9A30200E19A0000E59A0000AC
:10021000ED9A0000E99A0000F19A0000E7A30200BD
:10022000E7A30200E7A30200E7A30200E7A302009E
:10023000F59A0000E7A30200E7A30200E7A302008B
:10024000689B0000689B0000689B0000689B0000A2
:10025000689B0000A5B5000079C20000689B000003
:10026000689B0000689B000065B30000689B00006D
:10027000689B0000689B0000689B0000689B000072
:10028000689B0000689B0000689B0000E7A30200D9
:10029000689B0000D5AC0000689B0000689B0000D4
:1002A000689B0000D5AD0000ADAD0000689B00006C
:1002B000689B0000689B0000689B0000793E01007D
:1002C000053E0100013E0100CD380100753E0100F0
:1002D000093E0100293E01000D3E0100152A0100E2
:1002E000BD3E0100689B0000689B0000F99D000076
:1002F000689B0000689B0000689B0000E7A3020069
:10030000689B0000689B0000490A0000689B000091
:10031000689B0000689B0000689B0000689B0000D1
:10032000689B0000689B0000689B0000689B0000C1
:04033000689B0000C6
:10033400F8B500BFF8BC08BC9E467047F8B500BFCE
:10034400F8BC08BC9E46704710B5054C237833B9F9
:10035400044B13B1044800E000BF0123237010BD17
:10036400F4200020000000004C7C030008B5034B7F
:100374001BB10349034800E000BF08BD00000000B2
:10038400F82000204C7C0300154B002B08BF134BB6
:100394009D46A3F5803A00218B460F461348144A24
:1003A400121A2CF08FFC0F4B002B00D098470E4BE9
:1003B400002B00D098470020002104000D000D48B8
:1003C400002802D00C4800E000BF2CF03DFC2000C7
:1003D40029000FF01BF92CF023FC00BF00000800DB
:1003E400801A00200000000000000000F42000201B
:1003F400A83C002000000000000000000B4602465C
:100404000149012005F0BAB938CE020008B5044903
:10041400012005F0B3F9BDE8084009F061BE00BF52
:1004240040CF0200052A70B5134605460C4606D98E
:10043400BDE8704002461849012005F09FB90B46FB
:1004440002461649012005F099F9012C02D0022C2C
:1004540015D070BD55B9124B1A782AB91C701148C1
:10046400BDE870401DF014BD1D70F8E70E4B1A78FE
:1004740012B91C700D48F3E700221A70FAE7012044
:100484000B4905F07BF900220A4B01201A70BDE8E4
:10049400704001F083B800BF71CE0200AECE0200FE
:1004A400102100206C340020112100205C34002035
:1004B400EDCE02007434002008B51749012005F080
:1004C4005DF900F057F900F0DBFD00F0D5F900F01C
:1004D40025FA00F06DFE00F04DFF10B901220F4B1C
:1004E4001A7000F09BFE10B901220D4B1A700D48D2
:1004F40000F0BCF90C4800F0B3F90C4800F0A8FF78
:100504004FF4FA710A481DF0CFFCBDE8084040F6EC
:10051400B83108481DF0C8BCF7CE020012210020F3
:10052400132100202904000001040000110400002C
:100534006434002074340020002310B50B4C237065
:1005440000F042FD0A4A107840B1431E1370204661
:10055400BDE810404FF496711DF0A6BC00F06CFD90
:10056400BDE81040012000F067BD00BF64340020E6
:10057400881A00201FB500221A4B1A701A4B1B78D8
:1005840053B102A901A800F03BFF28B9DDE901231A
:100594001649012005F0F2F8154B1B7853B10DF103
:1005A400020000F071FE28B9BDF8022011490120B3
:1005B40005F0E4F803A800F009FA039A0E490120B3
:1005C40005F0DCF800F0FAFD0C490246012005F0C4
:1005D400D5F840F6B83103481DF066FC05B05DF867
:1005E40004FB00BF74340020122100200FCF02004E
:1005F400132100201FCF02002BCF020032CF0200B4
:10060400002038B5134B144C1870144B1B78DBB115
:100614002178022909D0042912D001294FF00205BA
:1006240001D100F09BFD257003E000F097FD042349
:1006340023704FF47A71BDE8384006481DF034BC8D
:1006440000F08CFD0123F3E7184600F0F5FC0223CB
:10065400237038BD6C340020891A0020102100203A
:10066400002238B5154B164C1A70164B1B78F3B193
:10067400217802290AD0042914D001294FF0020557
:1006840002D1084600F06AFD257004E0012000F064
:1006940065FD042323704FF47A71BDE838400748A0
:1006A4001DF002BC012000F059FD0123F2E70120F6
:1006B40000F0C2FC0223237038BD00BF5C3400206C
:1006C4008A1A002011210020902808B502D10120A7
:1006D40000F08AFF012008BD00F03CBFF8B5214CB2
:1006E400636883422CD0636998422BD10125EDB213
:1006F4002D0163195E683023625D1B485343002259
:10070400944618440368F34003F001030168F14080
:1007140001F00107BB4217D10132052AF6D1621953
:100724001772A3B9537A01335372137B13B90F4869
:100734001DF0AEFB01232C4423730023E372F8BDA8
:100744000025D4E7FF25D3E700223B46DEE701235B
:1007540082F80CC0D3724FF4FA71BDE8F840044833
:100764001DF0A2BB8C1A002014C003407C3400206E
:1007740084340020F7B50AF0FBFA01250D4C0E4F26
:1007840004F1200600230122616820780CF0FAFAB3
:10079400394620790AF0FAFA626814F8100BCDE9A8
:1007A4000055012311460CF0A7FAB442EAD103B074
:1007B400F0BD00BF8C1A0020E1060000F8B500244B
:1007C400144B154D1C702346144F2E7BFEB1A97A91
:1007D4003B680131C9B2A97233B10F2914D00FD8C3
:1007E400052911D00A290FD0103534B18EB1BDE8D6
:1007F400F840C82107481DF057BB01243346E4E7FD
:10080400142901D01929EEE720469847ECE71E4643
:10081400EAE7F8BD7C3400208C1A00201421002063
:10082400F8B500252E460B4B0B4C0C4F1D70E37A8C
:1008340053B13B681BB1A27A617A28469847A672E5
:1008440066722673E6722672103405B1F8BD01256E
:10085400EDE700BF843400208C1A0020182100200A
:1008640008B1014B186070471421002008B1014BF6
:100874001860704718210020F0B585B06C46204BF5
:1008840001260FCB84E80F0001230B2219461846DA
:100894000CF078FA01230B22184600210CF072FAAE
:1008A400022709233146174D1748184A013B13F014
:1008B400FF0307601160F9D1D5F8A0141448014072
:1008C40041F00101C5F8A014D5F89C24214602404A
:1008D40042F00112C5F89C240322C5F898240D4D5A
:1008E4000D4A2846CDE901328DF80C308DF80060B0
:1008F4008DF801600CF0CEFA1023AB6005B0F0BDAA
:1009040050CF020000C0034040D0034040E0034009
:10091400FCFFF0FF0000014AA086010070B5274EDD
:100924008EB008AD00240FCE0FC596E80300032651
:1009340085E80300224DCDE903442846CDE905446A
:1009440007948DF80E60029400F01CF90221052032
:100954000BF074FF022322461A4928468DF81730FB
:1009640000F086F923468DF819000090224642F2E1
:10097400107128468DF8236000F092F904238DF855
:100984002130A5238DF8250008AA05A928468DF84D
:1009940009308DF80E408DF8084000F0A5F902AA40
:1009A40003A9284600F0AEF8074AD2F8283343F4E6
:1009B4008033C2F828330EB070BD00BF60CF020090
:1009C4000040004A40420F0000C00340012213B51A
:1009D4000446184BDA605A6902F4A072B2F5807FBB
:1009E400F9D16846134900F0D5FA0098124A134B1E
:1009F40003FB0023B3FBF0F02BF038FC9FED091B45
:100A040041EC100B29F012FE08A3D3E9002351ECAA
:100A1400100B2BF0A5FC2BF053FF206002B010BD8F
:100A2400AFF30080666666666666F6BF0000000087
:100A3400D8227E410040004AF0D87002F0D8FFFF6F
:100A44000000000073B5154E6846314600F0A2FA66
:100A5400012442F22403009DF45028462BF006FCA6
:100A64000AA3D3E900232BF07BFC0AA3D3E90023D8
:100A74002BF0A0FD2BF024FF2B460246204608490C
:100A840002B0BDE8704004F079BE00BF66666666D9
:100A940066660A400000000000FEAF400040004AC5
:100AA40078CF020010B522B1032A0CD00360047180
:100AB40010BD11F4000218BF4FF07F4221F07F43B4
:100AC40013430C0EF2E721F0FF03CCB2EEE7012250
:100AD40041F2040330B54468C2508B780D88C9785C
:100AE4001B04002914BF4FF40031002103F48033A8
:100AF4002B430B43C0F89830E3075CBF42F2040376
:100B0400C25030BDF8B5012642F204030C46C6506B
:100B14000B7803F007016378002BA37818BF08272C
:100B24004FEA031303F0300343EA0103E17808BFFB
:100B34000027002914BF4FF4807100213B430B436D
:100B440003676179237909031B0201F4805103F4DB
:100B5400E063C76A0B430A4939400B43A179002972
:100B640014BF4FF4803100210B43C3621146FFF7D9
:100B7400AEFF41F20403C650E37903B1C660F8BD89
:100B84000017010041F20403012270B5C250274B43
:100B9400274AC36043691340FCD18361C0F898308D
:100BA400436913F4401FFBD14369DB052CD443692B
:100BB40013F400732AD1C26F0121D0F88C2042F2C1
:100BC40004028150302283600361C36203620267BE
:100BD400C0F88020174A42F2600490420CBF0222FF
:100BE40000221E46144D934213D100231946114A84
:100BF400904201D1102B13D142F224020F4B8350A7
:100C040042F22802835070BD436FCDE7D0F88430A0
:100C1400CDE700EB03118C6401330D654E65E2E70B
:100C240003F1280440F824100133E1E71200020024
:100C3400520001000040004A00C002808F330F8040
:100C440008B531B917200BF0D3FC002814BF0146B6
:100C5400012101F57420054B00F23F20B0FBF3F0B5
:100C640001387F2828BF7F20C0B208BD40420F0052
:100C740010B50A4C10468C4228BF0C4612B91720F6
:100C84000BF0B6FC631E1844B0FBF4F018B1013845
:100C9400032828BF0320C0B210BD00BF005A62025F
:100CA40010B50F480F4C002B08BF04468C4228BFD8
:100CB4000C461AB917200BF09BFC02469DF808005D
:100CC4000130B2FBF0F0621E1044B0FBF4F000B14E
:100CD400013840F2FF31884228BF0846C0B210BD37
:100CE40080969800404B4C002DE9F74F0F46144670
:100CF4009B4900220546FFF7BBFF7E7942F20403BD
:100D04000122864238BF0646EA503979F6B219B94B
:100D14002846FFF795FF0146FB7830071B0100F0DA
:100D2400E04003F030030343080400F4FE001843DA
:100D34003B780BB140F002007B780BB140F004002B
:100D4400BB780BB140F00800FB883A89A8602B619E
:100D54007B89002743EA0243DFF83082DFF830B2B0
:100D64002B62454501D1022F06D141F20403012231
:100D7400EA5003B0BDE8F08F002294F8009079485F
:100D8400794994F805A0914518BF01464B46009651
:100D94002846FFF785FF390105EB010CDCF84820F4
:100DA40009F0030E02EA0B024EEA020E6278504585
:100DB4004FEA820202F01C034EEA0302A37838BF12
:100DC40050461B0303F4E0431343E278120402F495
:100DD400E02213432279120702F040521343CCF865
:100DE40048307A1DB9F1000F72D1DCF84830C3F3F2
:100DF400023C0CF1FF33012B5C4B6FD8DFED5C7AC6
:100E0400D3F880311FFA83FC41448B6C2CF4C04E20
:100E1400C3F38209012309F101018B4007EE103A63
:100E24004FEA8E4E1CF4004F18BF4EF0004EB8EE41
:100E3400C76A4E49F6EE006AB9F1000F71D1D1F8D4
:100E44008C311BB207EE103AB8EEC77A77EE877A88
:100E540094ED027A9FED475AB8EE477AC7EE055AE9
:100E6400B7EE045A85EE257ADFED435A27EE277A4A
:100E7400C5EE867A9FED416A67EE867AB1EE006A26
:100E8400BEF1004FE7EE067A0BD09FED3D6A07EE08
:100E940010CA37EE866ABAEEE87ADFED3A7AE7EE00
:100EA400067AF5EEC07AF1EE10FACABFF1EE677A6F
:100EB40076EEE77A77EEE67AFDEEE77A17EE903A89
:100EC40031498B4242DD4EEA0103110148F80130F9
:100ED40008EB0212506001370C3442E7BCF1030FF7
:100EE4000BD1D3F880C1D3F88C314FEA1C4C1B14BE
:100EF40007EE903AF8EEE77A86E7BCF1040FD3F8F0
:100F040084C10BBFD3F88C31D3F88C311B141B1460
:100F140007BF1FFA8CFC5B004FEA1C4C03EB430336
:100F2400E6E7D1F8903166EE265A1BB207EE103A86
:100F3400B8EEC77A77EE677AD1F8883187EEA57A6A
:100F44001BB207EE903AF8EEE77A7FE713F5003F1D
:100F5400AABFC3F311034EF4003343EA0E03B4E70C
:100F6400005A6202404B4C00809698000080E00FCB
:100F74000000000000007A44000080430000204488
:100F840000000049000000C9FFFF01000040004AC2
:100F9400E08FF8CF10B50A6F496F02F00702FFF730
:100FA40081FD10BD044B52001870044B04481970A5
:100FB400044B1A701CF06CBF983400208D34002050
:100FC400903400208C3400200122194B70B5302459
:100FD40059681D7802FA01F643F21001154804FB22
:100FE40005056E501D7ADE6804FB050502FA06F657
:100FF4006E501D7C5E6904FB050502FA06F66E5010
:101004001D7EDE6904FB050502FA06F66E5093F8B0
:1010140020505E6A04FB050502FA06F66E5093F84A
:101024002850DB6A04FB05009A40425070BD00BFA3
:10103400AC1A002000C003401823584301230E4972
:1010440070B530250A18085C51680C4C03FA01F697
:1010540041F2100105FB00404650107AD66805FBAA
:10106400004003FA06F64650107C5269934005FB93
:101074000042535070BD00BFAC1A002000C00340B2
:1010840070B5104D00242E462919285D0023042232
:10109400496808340BF076FE182CF5D10024301979
:1010A400C16900230422007E08340BF06BFE182C67
:1010B400F5D10020FFF7C0FFBDE870400120FFF725
:1010C400BBBF00BFAC1A002000232DE9F0434FF052
:1010D400010C302641F2100E43F21008194A1A4C42
:1010E40013701A4A1A4D17781A4A107800EB400206
:1010F40004EBC20414F8332004EBC30106FB0252D0
:10110400496847FA03F919F0010F0CFA01F103F1E8
:10111400010314BF42F8081042F80E10032BE9D162
:101124000D4A1378013BDBB2137033B1BDE8F043D1
:101134004FF4FA7103481CF0B7BEBDE8F043FFF763
:101144007BBF00BF90340020AC1A00208D340020F7
:1011540000C00340983400208C3400201822124B25
:101164002DE9F04102FB003001270023302641F233
:10117400100C42F2100E0D4D10F8332000EBC30496
:1011840006FB0252646841FA03F818F0010F07FAEB
:1011940004F403F1010314BF42F80E4042F80C407A
:1011A400032BE9D1BDE8F081AC1A002000C0034054
:1011B40000230122042102200BF0E4BD024B186835
:1011C400C0F30010704700BF74C0034030B5114B2A
:1011D40089B0039308AB03F8180D0493012301AA03
:1011E4000C460D4803A9ADF814300692ADF81C3036
:1011F4000BF07EFF084D012807D0003018BF0120F6
:101204009DF80430237009B030BD28460BF064FE0D
:10121400F1E700BF660004000000014AC02210B5D7
:10122400154B88B0039308AB03F8182D04930123DE
:1012340001AA03A91148ADF814300692ADF81C3088
:101244000BF056FF0D4C01280CD09DF8042008B972
:10125400142A0BD003460A49012004F08FFA002017
:1012640008B010BD20460BF037FEECE7054901201D
:1012740004F084FAF3E700BF660004000000014AAA
:10128400ADCF0200E0CF020070B588B00DF10701C8
:101294000546C420FFF79AFF9DF80730C42223F0C7
:1012A400020343F004038DF807308DF80930194B1D
:1012B40002AE0393022303A917488DF8082004966D
:1012C400ADF814300BF014FF134C01281BD0F0B907
:1012D40003A9C120FFF77AFF31460446C220FFF775
:1012E40075FF2044C0B2003018BF01209DF80C30B7
:1012F40003F07F029DF80830A3F5804303EB02233B
:101304002B8008B070BD20460BF0E6FDDDE7012020
:10131400F7E700BF660001000000014A30B5134B37
:1013240089B0039308AB03F81C1D04930123ADF8A3
:10133400143002AB06930223044603A90C48ADF80B
:101344001C300BF0D5FE0A4D01280BD001209DF86E
:1013540009309DF8082003F0FC0303EB022323600B
:1013640009B030BD28460BF0B7FDEDE7800004005E
:101374000000014A4CF6FC1230B51C4B89B00393B3
:1013840008AB23F81C2D04930223ADF8143002ABF0
:101394000693032303A91648ADF81C300BF0A8FEEE
:1013A4000546134C012D16D02A461249012004F09B
:1013B400E5F99DF80820B2F1140418BF0124002DAA
:1013C40018BF012464B10C49012004F0D7F90124A9
:1013D400204609B030BD20460BF07EFD0546E1E70E
:1013E4000649012004F0CAF9F2E700BF80000400B6
:1013F4000000014AF8CF02000FD0020036D00200EC
:1014040070B50C46E5210646FFF788FF08B90020B1
:1014140070BD43F609524FF47A753368E0215A439C
:10142400520BA2F5BB52103AB2FBF5F220463260E1
:10143400FFF774FF0028EAD045F2CD5322685343E6
:101444005B0BA3F53743023BB3FBF5F32360DFE704
:1014540008B1014B18607047AC340020F8B530482F
:101464003049047891F900302F4E304A002C3ED098
:101474002F4D96F900402878DFF8D4C014542D4C31
:10148400471C2F702778781CC0B2022820700CF8F3
:10149400073002D900232B702370032492F9003003
:1014A40092F90100184492F90230034493FBF4F3D7
:1014B4005AB20A703270204A117805292DD10021C0
:1014C4001E4A13F13B0F117017DB1D49012004F074
:1014D40055F9224604210120FFF764FD0023194831
:1014E40041F288310370BDE8F8401CF0DDBC0124F2
:1014F4001370047053709370CFE7503306DA1249B7
:10150400012004F03BF922460121E4E70F490120C0
:1015140004F034F922460221DDE701311170F8BDEF
:101524001C210020DF1A0020DE1A0020A83400202D
:1015340022210020212100201F210020B03400207E
:101544004FD00200A034002058D0020060D0020026
:101554009C34002008B50D4B1B78A3B143685B880D
:10156400032B10D190F91130094A1370094A1380E2
:1015740082898368134413F8022C074B1A70FFF70F
:101584006DFF012008BD0020FCE700BF1D210020E5
:10159400DE1A0020DC1A0020DF1A002010B50E4CE1
:1015A40080B10020FFF748FD0120FFF745FD002230
:1015B4000A4B64211A70012309482370BDE81040C6
:1015C4001CF072BC074B20701B6823B1BDE81040AF
:1015D4004FF47A70184710BD1D21002020210020EF
:1015E400B0340020AC34002048B10122074B084835
:1015F4001A700023074A037013701CF049BC064B91
:101604001B6813B14FF47A70184770471E210020ED
:10161400B034002020210020AC3400204FF02453AB
:1016240030B589B0054608AC292044F8183D01F0CE
:1016340019FA2946024603A82BF039FB292001F0A8
:1016440011FA043080B2094B0122CDE90040032194
:10165400182002F003FC0121084602F043FC00219B
:10166400084602F03BFC09B030BD00BF580503003A
:10167400002238B51D4B1E4C1A7023783C2B04D91C
:101684001C4B1B680BB1642098471B4B1D7815B18C
:10169400012D1DD038BD1949012004F06FF82378BD
:1016A400012102334FF0806023700DF00BFA2946BC
:1016B4004FF080600DF006FA0122114B1A700DF004
:1016C40039F94FF4FA61BDE8384008481CF0ECBB26
:1016D4000C49284604F052F823780B480133237050
:1016E400FFF79CFF40F2DC51EDE700BFB03400206F
:1016F40020210020AC3400201E21002080D00200D4
:101704006D26002099D00200DC1A002010B50024B8
:10171400074B084901201C7004F030F815F05EFBFB
:101724001FF0D8FC2046BDE81040FFF737BF00BFCC
:10173400A034002067D0020007B5012308226946BF
:10174400002002F01BFD4FF6FD71684600F0CAF858
:10175400FF28024606D10649012004F00FF803B021
:101764005DF804FB0349012004F008F8F7E700BF23
:10177400A9D00200C5D0020007B50123082269469A
:10178400002002F0FBFC684600F01EF930B9044961
:10179400012003F0F3FF03B05DF804FB0149F7E710
:1017A4003FD102004DD1020007B50123082269464A
:1017B400002002F0E3FC684600F076F8FF280246B9
:1017C40006D10649012003F0D9FF03B05DF804FBFC
:1017D4000349012003F0D2FFF7E700BFE2D0020083
:1017E400F2D002002DE9F74300261C49022003F041
:1017F400C5FF34464FF6FF77DFF86880DFF868905E
:1018040001F022F8F5B2A8420AD801F01DF82246E8
:1018140003461349022003F0B1FF03B0BDE8F0838F
:10182400284624F081FEB842034615D02A46414694
:10183400022003F0BFFF28466946013424F05CFE11
:101844000220E4B203F086FF10B1684603F008FFFB
:101854004946022003F092FF0136D1E70FD102007E
:1018640028D102001DD10200EF2E030037B500205D
:1018740002F04AFC0446022002F046FC0546694692
:10188400E4B2012002F09DFCAAB26946204600F0B1
:1018940069F8224603460349022003F06FFF03B0B0
:1018A40030BD00BF62D10200F7B5064698B10025ED
:1018B4004FF6FF77ECB2204624F036FEB84209D04A
:1018C4006946204624F018FE08226946304603F093
:1018D40074FA08B11DB1FF24204603B0F0BD012500
:1018E400E8E700002DE9F74380460E460027FF2471
:1018F4004FF6FF79FDB2284624F016FE484515D070
:101904006946284624F0F8FD08226946404603F05B
:1019140054FA70B94FF6FD739E422C4615D1104A05
:10192400135D0133135516E00127E3E7FF2C08BFCD
:101934002C46002FF8D0FF2C0DD04146204624F031
:1019440033FF4FF6FD739E4203D03146204624F008
:10195400A1FD012CE3D9204603B0BDE8F08300BF0C
:10196400232100200128F8B50546174612D80B4E4E
:10197400325C8AB924F018FF044638B94FF6FD7377
:101984009F4203D03946284624F084FD0123735531
:101994002046F8BD6A24FBE77624F9E723210020DA
:1019A400012810B50CD8074B1A5C0AB1013A1A5435
:1019B4001C5C1CB94FF6FF7124F06CFD002000E0A4
:1019C4006A2010BD2321002008B5FFF76DFFBDE894
:1019D4000840FFF7E5BF000008B5012003F08CFACA
:1019E4000022044B01201A700CF0E8FABDE808400C
:1019F40003F071BAB834002008B501201CF05AFB7A
:101A040002481CF0CFFA024B187008BD78D10200CE
:101A1400C034002008B503F0EBF8012805D0034BCF
:101A24001878BDE808401CF0A5BA08BDC0340020F1
:101A340010B50C1E03D11CF02BFA002010BD02DBE4
:101A44001CF032FAF9E70220F8E7B1F5000F02D2F0
:101A54000902FFF7EDBF0220704700002DE9F041B5
:101A64004FF00C0C00269846134B144F1B88F4B20D
:101A74009C4202D30220BDE8F0810CFB04F57C19E2
:101A84007D5D854205D165888D4202D125799542D7
:101A940001D00136EBE701F099F90028EAD041467C
:101AA400A068FFF7C5FF0028E4D19DF818306371E2
:101AB4009DF81C30A371DEE7EC1A0020E01A002028
:101AC40013B59DF81040CDE9003413460022FFF70A
:101AD400C5FF02B010BD002307B50093FFF7F0FF68
:101AE40003B05DF804FB0000F0B54FF00C0C0025CA
:101AF4000C4B0D4E1F88EBB2BB4201D30220F0BD4C
:101B04000CFB03F3F418F35C834205D163888B4226
:101B140002D12379934201D00135ECE70020A36878
:101B24001870ECE7EC1A0020E01A00200022FFF7FE
:101B3400DBBF00002DE9F04F1E46FF2393B0022EB9
:101B44008046894614461C9D9DF874A08DF81E306D
:101B540040F2BA802B785A072BD5042E40F2B48079
:101B640095F804B000235D4A02EBC3010979DFB2A2
:101B7400FF2907D001330A2BF6D1209B002B40F01C
:101B8400A780FF27002308AA0DF11F0120798DF8F3
:101B94001F3001F0FBFF78B1BDF82C309DF81F0019
:101BA400238003F091F98DF81D00C8B113B0BDE88E
:101BB400F08F95F802B0D5E7207901F019F9FF28E4
:101BC400059000F08380207903F096F98DF81D00CC
:101BD4000028EBD1059B424800EB03104388238087
:101BE4004FF6FF72B8F1000F08BF4A466188238898
:101BF400CDE9001258465246002105F075F818B197
:101C0400E38843F02003E380209B0DF11D010DA820
:101C1400CDE90D340F95ADF84090ADF842608DF8E4
:101C240044808DF845A002F000F810B19DF81D0025
:101C3400BCE7284604F0B0FFA01D04F09BFF224639
:101C44004946404605F060F980B2B0422CD39DF875
:101C54007C3022460393BDF87830494602930DF157
:101C64001E03CDE900534046F3B200F088FD8DF821
:101C74001D00209A9DF81D30D2B15BBB9DF81E203B
:101C8400FF2A08D0092F06D8144B03EBC7010A71A9
:101C9400209A43F837209DF81D3013B9112001F024
:101CA4004FFF03F018F9C1E774238DF81D30E0E706
:101CB400BA2BF0D1E388DB06EDD5002301208DF8A3
:101CC4001D3002F09BFFE6E701206FE7A3206DE7DC
:101CD400B4206BE7BA2BEDD0E3E700BF2821002046
:101CE400C8340020002310B51946FF24034AD01835
:101CF400047199500833502BF9D110BD28210020CC
:101D040010B586B0089C088104940024CDE90244EF
:101D14000124CDE9003413460A4601460320FFF7A7
:101D240009FF06B010BD13B500240094FFF7E8FFC7
:101D340002B010BD2DE9FF410F469046054688B319
:101D440081B37AB300266946F0B214F06BFE044600
:101D540030B99DF80030032B06D00136032EF2D1A2
:101D6400204604B0BDE8F0819DF801202B799A4209
:101D7400F3D1BDF802206B889A42EED19DF806306B
:101D84009DF805003A4600EB03209DF8043080B22C
:101D94006B71288143462946FFF7C5FF0028DCD034
:101DA4000446DDE70224DBE710B586B0089C049402
:101DB4000024CDE902440124CDE9003413460A4647
:101DC40001460620FFF7B6FE06B010BD13B5002489
:101DD4000094FFF7E9FF02B010BDF0B502288BB004
:101DE40005460E4614461F460AD106A9F0B214F061
:101DF40019FE98B99DF8193023719DF81C30637150
:101E04000022119BCDE902220493109B01920093BE
:101E140022463B4631462846FFF78CFE0BB0F0BD08
:101E240013B500240194049C0094FFF7D6FF02B07C
:101E340010BD000007B5094A0346108831B9084AA5
:101E4400084903B05DF804EB03F0B4BC0091064A02
:101E5400064903F0AFFC03B05DF804FB1622002032
:101E6400FCD90200BCD4020096460300C3D402008D
:101E74007FB505460E461DF0B5FB044603462A46CB
:101E84000C49022003F07AFC8CB986B101238DF849
:101E94000E30032322460093362103AB4FF6FC7029
:101EA4008DF80C408DF80D5006F0A4FB0446204636
:101EB40004B070BDA5D40200FF2810B50C4604D1AF
:101EC4000220044903F05AFCFE202146BDE81040DC
:101ED400FFF7CEBF7BD50200F8B50F8805460C4648
:101EE4001646A7B900F0AAFD40B948F2210362885A
:101EF4009A4203D17178284601F054FE6388B3F501
:101F0400004F02D9082001F0A1FE012000E00020CA
:101F1400F8BD2DE9F04788B00C46924699468046B4
:101F2400BDF84060119D22F0DBFA8DF80880074669
:101F3400CDE90345ADF81460ADF816008DF818A08E
:101F44008DF8199000F0A8FA8DF81A0000F0A6FA9E
:101F54008DF81B0015F011F88DF81C0002A8FEF78F
:101F6400BBFBA8B933462A462146384604F0D8FAC2
:101F740070B933462A4621463846FFF7ADFF38B9D3
:101F8400CDE9007033462A464146204604F0D2FE8D
:101F940008B0BDE8F08700002DE9F04F85B0804619
:101FA40089461446BDF838600F9D9DF840B01F4621
:101FB400002B2CD0474A4849022003F0FBFB23881E
:101FC400002B78D040F20912934276D0434A444918
:101FD400B3F5827F18BF0A466188019600910220FA
:101FE400404903F0E7FB23886BB1022E0BD92B7811
:101FF4003D4913F0010F3D4AAB7818BF0A46022051
:102004003B4903F0D7FB3B49022003F0B7FB3A4AB4
:102014000023114602EBC300007958454FD152F812
:1020240033A0002301EBC302107958454DD1FF20A2
:102034001071002241F8332047B9238833B9B4F929
:102044000230002B02DB082001F07AFD012001F0B0
:10205400FDFD9DB12878C30710D510F0040004D00D
:1020640032460121284602F00FFFCDE901700095A8
:10207400334622464946404601F068F8BAF1000F5B
:1020840006D0CDE900573346224649464046D0475C
:102094003B46224649464046CDE9006506F01AFC17
:1020A4003346224649464046CDE90E5705B0BDE8C1
:1020B400F04F01F073BD114A8EE7114A8CE70133EA
:1020C4000A2BA7D14FF0000AABE701330A2BA9D1A1
:1020D400B2E700BF2AD4020032D4020018D40200AE
:1020E4007FD402003CD402001BD4020023D402009B
:1020F4006BD40200EF2E03002821002011D402002B
:1021040015D40200962813B5044632D02BD8912852
:102114003AD094282DD0902814D100F0B7F9204B50
:102124000090204A2049022003F028FBBC2C26D131
:102134001E49022003F022FB01F081FD01F080FD25
:1021440001F07EFD204606F043FC20460CF084FBA3
:102154002046FEF7B9FA00B30220154902B0BDE8E3
:10216400104003F00BBBAF2807D8AB280AD298283D
:10217400E8D1104B0B4A104909E0BC28CCE724F005
:102184006BFCDDE79128F4D1054B064A0B4902208C
:1021940003F0F4FA04F037FCD4E702B010BD00BF3A
:1021A400D0D40200D9D40200E0D40200EDD402005D
:1021B40025D5020014D502001CD502000BD502005F
:1021C40013B50F4C002002F07FFE23686BB101A809
:1021D40000F032FB48B923681A789DF804309A421B
:1021E40003D0012A07D1022B05D1032301A8ADF89E
:1021F40004301EF079F902F06EFE02B010BD00BF8B
:102204001022002010B5044602F063FE204601F0BF
:1022140021FDBDE8104002F05EBE00000B4B13B57B
:102224001B6804467BB1187801280CD12289E37A13
:1022340000920749074A03F0A1FA204602B0BDE81C
:1022440010401DF0C1BF702002B010BD102200204C
:102254005AD5020055D502000D4B37B51B6805460B
:1022640093B11C780289012C08BF0224C37A09495E
:1022740000920120084A03F081FA2946204603B05F
:10228400BDE830401EF0CCB8702003B030BD00BFB4
:10229400102200205AD5020076D5020010B504465B
:1022A40000F0ECF80021631E04F10F0213F8010F93
:1022B400FF2808BF19709342F8D10023237410BD7E
:1022C4007FB504AB03E9030000231C469DF80D50C1
:1022D4009DF80E601549D8B201EBC0025268EAB904
:1022E4009DF80C109DF80B3000919DF80A201049C0
:1022F400022003F05FFA25B12A460E49022003F0BA
:1023040059FA0D4A0220002C18BF2246BDF80830A5
:102314000A4904B0BDE8704003F030BA11F8300047
:102324000133B04208BF1446D5E700BFB8D5020058
:1023340082D4020093D402007ED4020097D4020017
:1023440010B50AF028FC012300224FF4E1312020CB
:102354000CF034FD07F0BAF9044607F0CDFE22462E
:1023640003461249012003F009FA07F0B5F90446BF
:1023740007F0D0FE224603460D49012003F0FEF982
:1023840007F0A4F9012303FA00F040F2A173184204
:102394000BD0084C207807F0A5F9207807F05EFAF6
:1023A4002078BDE8104007F05FBB10BDECD60200FA
:1023B40002D702003D1B002037B5002201A81146B8
:1023C40001F0E9FB002846D11BF084FB034640B131
:1023D40022490120224A03F0D1F9AA21214807F019
:1023E40019F802F067FDFFF77DFC00F04DFB00F0EB
:1023F40011FB0221084603F04FFDFFF7E1FE01F057
:1024040061FE0022184B4FF400401A805223174AF1
:10241400174C1380174A184D138018F053F807F01F
:102424001BFD1BF0FFFB02F0E3FB012801D000F0D1
:10243400F8FA0CF019FDFFF7EDFA2021002002F064
:1024440073F828B1224629464FF6FF7003F0B2F91B
:1024540002F043FDE3E7019803B030BD54D6020017
:102464002AD4020065D602007A2000207C200020B5
:10247400DDD602007E200020E8D6020002491023A7
:102484007F22098807F0D6BBEA5303001BF098BCEF
:102494001BF0A2BC1BF068BA22F022BB1FB5684631
:1024A40022F02CF8C8B902A924F026F808226946BB
:1024B4000DEB020002F081FC10B9002004B010BD45
:1024C40002A9012024F018F8082269460DEB020045
:1024D40002F073FC90B90120F0E722F001F84FF606
:1024E400FF739842044609D0002024F01DF884426A
:1024F400E3D0012024F018F88442ECD0FF20DDE77B
:1025040038B5054602F0F8FC044638B94FF4A0513A
:10251400284605F0E1FF044602F0DDFC204638BD04
:102524007FB5054602F0D5FC1BF04AFC40B16B8830
:10253400B3F5006F04D1681D01F032FB044616E0C8
:10254400284601F081FBD8B90446E6B26946304614
:1025540014F068FA80B99DF800306BB9294630460A
:1025640014F0C6FA0028E9D075280BD08C2402F0A8
:10257400B2FC204604B070BD0134032CE5D1F5E76C
:102584008D24F4E78B24F2E710B5044602F0A1FC95
:10259400204601F057FB58B9204614F077FA48B1A9
:1025A40075280CBF8B24882402F095FC204610BDAE
:1025B4008D24F9E70446F7E7FF2337B502A901F8AC
:1025C400013D044601F0DEFA18B19DF8070003B09E
:1025D40030BD094B03EB04131D7B14F0D0FC854282
:1025E40001D0FF20F3E7204600F06CFA0028F8D071
:1025F400204600F095FCEAE7C83400202DE9F041BC
:1026040007460D4601F0C0FA0646F0B9384600F018
:10261400EFFBFF2819D00E4C04EB001494F80C8047
:1026240014F0ADFC804510D1638801212B80A38870
:1026340038466B80A3792B7100F078FC31466871C1
:10264400384600F073FC0126A8713046BDE8F081DD
:10265400C8340020F8B504460E46154600F0C8FB01
:10266400FF2802D14FF6FF70F8BD0B4B03EB0010AF
:10267400077B14F084FC8742F4D146B90122294631
:10268400204600F079FC0028ECD00088ECE7012E0D
:10269400E8D10022F3E700BFC834002010B5044697
:1026A40002F017FC2046FFF72DFDBDE8104002F0B4
:1026B40012BC000037B50C4B0D461B681C5C9442E1
:1026C4000AD900922346094A0949022003F056F820
:1026D4000024204603B030BD002201460092234668
:1026E40028461BF01BFFF4E7AC1B00202AD4020091
:1026F4003CD60200F0B5144699B003AD0F46064629
:1027040002F0E7FB204652222946FFF7D3FF84B2AA
:102714008CB10DF10A0021F0D3FE0DF10B0021F074
:10272400D7FE9DF90B309DF80A20CDE900453946C6
:102734003046FFF7EEFB02F0CEFB19B0F0BD2DE9F9
:10274400F0411D469AB005AC0F469046064602F08D
:10275400C0FB522221462846FFF7ACFF50B180B29D
:102764000090CDE901459DF8803042463946304617
:10277400FFF712FC02F0AFFB1AB0BDE8F0812DE9BF
:10278400F74307460E460A9819461546BDF83080A9
:102794009DF834901BF0EAFEFF2804463AD00B9BC8
:1027A4001870062F34D8DFE807F00404041219293E
:1027B400220003462A463146384622F0F7F80546F9
:1027C40020461BF075FD284603B0BDE8F0830C22BB
:1027D40003461146284622F0BBF8F0E7EA7A03469E
:1027E400CDE900891146284622F074F8E7E703464C
:1027F4000C222946304622F013F8E0E70190EB7AE8
:102804004A46009331462B46404622F02DF8D6E73F
:102814000225D5E71825D6E70822014902F06ABA4D
:10282400813B002010B5044608461BF0B1F8204651
:10283400BDE810401DF054B81DF052B80520704793
:1028440000207047032070470420704706F0D2BA76
:1028540006F042BA06F03ABA014B1878704700BF46
:10286400C41B00204B207047024B18685968FFF7BF
:1028740027BD00BFE27A030013B5044602F029FB2A
:102884000DF1060021F01CFE0DF1070021F020FEE1
:102894009DF907209DF8061020460BF03DF930B94C
:1028A4009DF907209DF8061020460CF047FA02F027
:1028B40012FB02B010BD38B504460D4602F009FB08
:1028C400294620460BF05CFA18B9294620460CF03C
:1028D40045FABDE8384002F0FEBA38B504460D4664
:1028E40002F0F7FA294620460BF080F918B9294678
:1028F40020460CF011FABDE8384002F0ECBA7047FB
:1029040000F0A0B8704700002DE9F341224B1646B1
:102914000193044640B13AB1002301AA9D5C8D4263
:1029240033D00133042BF9D1022002B0BDE8F08189
:10293400E35C93FAA3F30146180E02F04BF9434605
:1029440003F10108DBB2BB42F2DBC2B292FAA2F29B
:10295400C0F30F2393FAA3F3100E1B0E03EB002313
:10296400DB4362199BB212F8020CD9B2884211D12E
:1029740012F8012CB2EB132F0CD132462146284613
:1029840002B0BDE8F04116F0AFB900234FF6FF7076
:102994008F1ED5E7BD20C8E7080A0E122DE9F041C5
:1029A400164686B01D461A4B074603A888461C786F
:1029B40014F0CEFB16F0FD0F28D030B9BDF80C3062
:1029C400990702D5032E08BF032433462A464146FD
:1029D4003846009401F043F9FFF758FD854203D0CF
:1029E4002946384606F034F9022C0BD0FFF74EFD89
:1029F400A84207D0B21E534253412946002238460A
:102A040006F070F9204606B0BDE8F0810324DCE747
:102A14007821002008B5FDF74FFDBDE8084003F01C
:102A2400C7BF08B501F0B9F803F0ECFF0BF06EFA7C
:102A3400BDE808400BF064BB01F0F5B801F0F7B84D
:102A44000020704738B504460D4601F00DF92946BB
:102A54002046BDE838400CF00BBE01F0EAB801F0A6
:102A6400F6B80000012310B5064A332B194601D1EC
:102A7400002006E00233D41814F8034C8442F4D145
:102A8400505C10BD22D7020001224FF48271074B23
:102A94001A70074B1A709A71064A59809A6000217D
:102AA4004FF4807299809A81704700BF7921002089
:102AB400C83400201CD80200014B1878704700BFAE
:102AC40079210020034B03EB0010407B00F0010050
:102AD400704700BFC8340020413803288CBF002051
:102AE40001207047413801288CBF00200120704725
:102AF400433801288CBF0020012070470020704714
:102B0400002070470388B3F57C4F01D3FFF7F8BF6B
:102B14000846FFF7F3BF10B54A880488A2420DD1D6
:102B2400037B0C79234009D0B2F57C4F08D3FFF71F
:102B3400E7FF0B891B1A5842584110BD0020FCE7DF
:102B44000120FAE738B50D88D488A5420AD1038854
:102B5400B3F57C4F08D2FFF7D5FF13891B1A5842EF
:102B6400584138BD0020FCE70120FAE72DE9F04F79
:102B74004FF0000A8046154657468BB001939DF8E6
:102B84005030DFF8D49105936F4B04911B78089370
:102B9400089A5FFA8AF39A4201D8862064E099F889
:102BA40000300293D9F80830029A039398F8003061
:102BB400934240F0C28099F80D30D80709D54FF000
:102BC400000B039B1B790793079A5FFA8BF39A42D6
:102BD40004D80AF1010A09F11009D9E7039B414617
:102BE4001E68142303FB0B663046FFF794FF00288E
:102BF40000F09F8033890693002306999AB291428C
:102C040002D80BF1010BDFE70C227468304602FB9B
:102C14000344424621460993FFF794FF2279099B16
:102C240000287CD0049B03B11C6091061FD4474844
:102C34000AE01A790C33920642BF13F8090C3F18C4
:102C4400BFB29C42F5D84248059B074493B1214644
:102C54003046FFF757FF23880246B8F8021002985F
:102C640000F073FF60BB7E200BB0BDE8F08F00273F
:102C7400384BE6E7002D35D021463046FFF742FFBA
:102C840023880246B8F80210029800F05CFF00287E
:102C9400E9D02846DFF8C4902379DB0615D5214610
:102CA4003046FFF72FFF98F800600346224630466F
:102CB400CC46B8F8021014950BB0BDE8F04F60474D
:102CC4003846DFF89C902F46E6E7019AA3785AB974
:102CD400E278A3F14101012908D8013AD2B2394678
:102CE40004F03EF90020BFE7019AF2E7433B012BD1
:102CF40005D8023A92B2394604F04CF9F2E7059B42
:102D04002BB9019B1BB1E37801998B421AD8394640
:102D140017B902F04BF8E5E701F0ECFFE2E712F037
:102D2400300F08BFE07803F1010304BF3F18BFB2BE
:102D340063E770890744BFB263E7039BD8880744FD
:102D4400BFB246E789208FE779210020D8340020DC
:102D5400C434002060D70200C8340020793B00004E
:102D64007D3B00002DE9F041064600254FF0140894
:102D74000779E8B2874201D800241AE008FB05F07D
:102D8400D6F800C00CEB00043CF8000088421AD1CD
:102D940032B1802A10D194F90CC0BCF1000F12DAC0
:102DA400B0F57C4F05D32046FFF7AAFE984200D029
:102DB4004BB92046BDE8F081402A04D194F80CC0F8
:102DC4001CF0400FECD10135D3E70000064B1B7813
:102DD4003BB1064B1A78824203D1587B00F00100C4
:102DE40070470020704700BF79210020C8340020BC
:102DF40070B50A4B0A491D780023DAB2AA4202D3FD
:102E0400FF22104670BD1C016618645C844202D126
:102E1400747BE407F5D40133EFE700BF7921002088
:102E2400C83400202DE9F0410D4616461F46FFF731
:102E3400DFFFFF280AD0074C3B4604EB0010324664
:102E44002946BDE8F0418068FFF78CBF0020BDE84B
:102E5400F08100BFC834002008B513460022FFF7F4
:102E6400E1FF003018BF012008BD08B51346402219
:102E7400FFF7D8FF003018BF012008BD08B513467E
:102E84008022FFF7CFFF003018BF012008BD0000EB
:102E9400054B1B7833B1054B1B78834214BFFF20CD
:102EA40000207047FF20704779210020C83400209B
:102EB40070B51D46FFF7ECFF044C2B4604EB0010E5
:102EC4008068BDE87040FFF74DBF00BFC8340020E4
:102ED400F8B507460C4615461E46FFF7A3FF78B122
:102EE400094B187858B1094B1878B8420AD03346C0
:102EF4002A462146FFF7DCFF003018BF0120F8BD49
:102F0400FF20FCE70020FAE779210020C8340020E4
:102F140013464022FFF7DCBF0022FFF7F9BF000091
:102F2400014B0001185C7047C834002070B50D4691
:102F3400FFF75EFFFF2818D00E4B03EB00108268EA
:102F44009AB10023142618461179DCB2A14200D8A4
:102F540070BD146806FB0344247B45B114F0400F94
:102F64001CBF0130C0B20133EFE70020F0E714F0DA
:102F7400800FF5E7C83400202DE9F0410F46904654
:102F8400FFF736FFFF280BD0104B4FF0140C03EB68
:102F9400001000231C4685682979DAB2914202D8D0
:102FA4000020BDE8F08128680CFB0300067BB8F123
:102FB400000F08D016F0400F03D0BC42F1D001340A
:102FC400E4B20133E9E716F0800FF5E7C8340020D6
:102FD4002DE9F04F89B0074613F0CFFF0024824655
:102FE4004FF00C0B3B4B1B780293029B9C422ED25E
:102FF400FF2F05D03846FFF7FBFEFF28044626D0F6
:10300400FF2F354E4FEA041360D1F218127B52455C
:103014005CD00134E4B2E8E714221B6802FB0535F6
:103024002B89B3F5967F01D906F016FF4FF00009FE
:103034002A891FFA89F39A420CD808F10108B36867
:103044005FFA88F51A79AA42E6D8FF2FE1D009B0D1
:10305400BDE8F08F1FFA89F10BFB01F16868421893
:10306400137913F0100F29D196F800C013F0400F14
:103074008DF814C0B5F800C00393ADF816C00CBFAA
:103084004FF0400C4FF0800C8DF818C0415A284680
:10309400ADF81A101146FFF735FD039BADF81C007F
:1030A4005B07D1780DD50229926800D912680123F3
:1030B4000093002305A81946FFF758FD09F10109FB
:1030C400B6E7022994BF08329268F0E74FF000088F
:1030D4001E44B4E779210020C83400200021FFF702
:1030E40077BF704710B5047B14EA010310D00022A7
:1030F40001238B4203D3036953F8220010BD1C4201
:1031040018BF01324FEA430318BFD2B2DBB2F0E773
:103114001846F3E7F8B516461F469DF81820BDF883
:103124001C300546FFF77EFE78B10421FFF7DAFF75
:10313400044650B1284601F0DFFE3A46314628469F
:10314400A047BDE8F84001F0C6BEF8BD2DE9F74F31
:103154000C9D1F4681468A469DF834B0BDF8383030
:10316400144612B30DB307B392F804802A78618829
:1031740012F0080F14BF402280224046FFF752FE8F
:1031840098B10821FFF7AEFF064670B1404601F042
:10319400B3FECDE9005B3B46224651464846B04764
:1031A40003B0BDE8F04F01F096BE03B0BDE8F08F68
:1031B400F8B5BDF8185017461A462B460446FFF7D3
:1031C40031FEE0B175B90221FFF78CFF0546B0B1BD
:1031D400204601F091FE39462046A847BDE8F84054
:1031E40001F079BE1021FFF77DFF064638B1204675
:1031F40001F082FE2A4639462046B047EEE7F8BD84
:1032040073B5BDF8184016461A4623460546FFF71F
:1032140009FEB8B1C4B92021FFF764FF044670B1B8
:10322400284601F069FE099B9DF81C200093314655
:103234009DF820302846A047044601F04CFE204665
:1032440002B070BD8624FAE70024F8E72DE9F041C6
:1032540086680446007801F04FFE00251427327971
:10326400EBB29A4203D8BDE8F04101F034BE7B438F
:103274003268207802EB0308D15A00F06AFC01217D
:103284004046FFF72FFF034608B1207898470135E1
:10329400E5E7000070B50024074D084E2B78E0B236
:1032A400834200D870BD06EB0010437BDB0701D5D9
:1032B400FFF7CCFF0134F1E779210020C834002066
:1032C4002DE9F041194B05461B780C465BB31848B1
:1032D40003780646AB4226D1437B03F0010239B1A1
:1032E40043F0010343734AB101242046BDE8F08151
:1032F4007173002AF8D04FF014080DE0FFF7A6FF11
:10330400F3E708FB04F41B6828461A19127B195BBF
:10331400D209FEF7E9FB3C46B368671C1A79E4B2AC
:10332400A242EED8E0E70024DFE700BF79210020C5
:10333400C8340020002070472DE9F74F4C7D0193DD
:10334400BDF830A09DF838B070B394B3012C18BF09
:103354000424002635469DF83C70DFF88480BFB213
:1033640036F80800904218D108EB060090F803E004
:103374001EEA040F11D090F80290D9450DD31EF027
:10338400100F91F80FC016D0BCF1000F05D0FFF755
:10339400D1FFB1F810C0844510D00436182EDFD107
:1033A400012003B0BDE8F08F002C14BF04240824CE
:1033B400CFE70224CDE7BCF1000FEED1AF420CD031
:1033C400AA450AD9019B0D9803F8059000880D9B26
:1033D400013001351880ADB2DFE70020E1E700BF1E
:1033E40004D802002DE9F04F1D4689B0BDF84840CD
:1033F4009DF85030934601932A46234607460E46CD
:10340400FFF710FD8DF81470ADF816608DF81850A4
:10341400ADF81AB0ADF81C40814618B9012009B0C6
:10342400BDE8F08F05A9FFF776FB0028F6D000254C
:103434009DF84C302E469BB22F462C46029336E024
:103444000C231FFA85F803FB08F8B9F80020D9F813
:103454000430B2F57C4F03EB080A1AD333F80800A2
:1034640058452ED3029BA3422DD901F0EBFC9AF8C8
:10347400020001F0D3FC019B43B19AF8043013F02D
:10348400010F0CBF0520072001F0C8FC0134A4B2D1
:1034940019E033F808205146ADF81A20484605AA29
:1034A4000393FFF74FFB039B0028D7D10135B9F8ED
:1034B4000820ABB29A42C3D83C44A31B584258419B
:1034C400ADE70137BFB20136B6B2EFE72DE9F04FF1
:1034D4008FB098469DF87030BDF860900693002335
:1034E4008DF82C00ADF82E10ADF83220009305466F
:1034F4000E46174608A91A460BA80893199C9DF86E
:1035040068B09DF86CA08DF83080ADF83490FFF76A
:103514002DFB089B6BB9CDE900672B465A4A5B49E2
:10352400042002F02BF94FF0860A50460FB0BDE894
:10353400F08FBAF1000F15D19A785A4507D0524A44
:103544005349042002F01AF94FF08D0AEDE71A7975
:10355400D10707D44C4A4F49042002F00FF94FF029
:10356400880AE2E71A79520732D59A685168926854
:1035740009910A92987803F089FD089B059093F8C5
:1035840003A0BAF1020F14D803465246214609A8F3
:1035940003F021FD059B0790524621460AA803F03B
:1035A4001AFD079B012B01D0013011D14FF0870A7E
:1035B400BBE7059B52462146099803F00CFD012800
:1035C400F4D0059B524621460A9803F004FDEBE72C
:1035D400069B002B51D1089B0394DB783A46CDE936
:1035E40001B3CDF8009043463146284600F017FB5E
:1035F4008246002899D1089B0394DB783A46CDE9AA
:1036040001B3CDF80090434631462846FFF7F8FD54
:103614008246002889D101230093069B224619463D
:103624000BA8FFF7A3FA824600287FF47EAF089B1D
:10363400324629462046FFF754FD43463A46314672
:103644002846CDE901B4CDF8009000F002FB089BB8
:103654000394DB783A46CDE901B331464346284624
:10366400CDF8009000F0DAFACDF8009043463A46DF
:1036740031462846FFF79CFD57E70749042002F02E
:103684007DF84FF0000A50E74ED802005AD80200E5
:1036940082D8020096D80200AAD802002DE9F04789
:1036A40086B0BDF838400F9D9DF840600094CDE988
:1036B40001560746884691469A4600F042FA98B168
:1036C40002280ED84FF00003049308BF0123CDE96C
:1036D4000045CDE902634A46534641463846FFF762
:1036E400F5FE06B0BDE8F0870120FAE730B5002406
:1036F400012587B0CDE903549DF82C5002950A9D0D
:10370400CDE90045FFF7E2FE07B030BD30B5002437
:10371400012587B0CDE903549DF828500094CDE9E4
:1037240001354023FFF7D2FE07B030BD10B54FF08E
:10373400010C002486B0CDE9034C9DF82840029486
:10374400099C0194BDF820400094FFF7BFFE06B029
:1037540010BD000030B5002487B08DF81030BDF8DE
:1037640028308DF80C00ADF80E10ADF81220ADF82D
:1037740014300094BDF830300B9A02A903A80294C7
:103784000D9DFFF7F3F9044630B915B1029B9B7800
:103794002B70204607B030BD8928FAD10249042095
:1037A40001F0ECFFF5E700BF24D802001FB5089C28
:1037B40003949DF81C400294069C019400240094F8
:1037C400FFF7C8FF04B010BD2DE9F04F4FF0000B18
:1037D40089B0FFF771F95FFA8BF6B04202D809B0ED
:1037E400BDE8F08F4FF0000A594C3601A25D5949EB
:1037F400042001F0C3FF5849042001F0BFFF0594E1
:10380400059B5FFA8AF433449B681A79A24202D872
:103814000BF1010BDDE714224FF000081B6802FBDB
:10382400043422891FFA88F39A4202D80AF1010A61
:10383400E6E70C271FFA88F35F436368DD190493F6
:1038440006F00AFB2B79454913F0400F049B2288AC
:10385400DB5B4FF004000093414B08BF0B4641492A
:1038640001F0A8FF29462046FFF74CF981460028BD
:103874003BD13D49042001F09DFF2979DFF80CC1BB
:1038840011F0010F394808BF604611F0020FAA7801
:10389400EB7830D1DFF8F8C011F0100F344908BFCD
:1038A4006146CDE900013349042001F083FF059B03
:1038B4002188985D049BDA5B2B79002713F0400F75
:1038C4004FF00203CDE9023707AF14BF8023402332
:1038D400CDE90097FFF73EFF86280ED12649042044
:1038E40001F04CFF08F101089BE70246234904203C
:1038F40001F060FFC1E72249D3E7A878FFF7F2F8A7
:10390400D0B1384601F0C6FA013082B201233946FB
:10391400042001F087FE4946208803F083F84FF61F
:10392400FF739842DED0174B174903EBC00042687F
:10393400042001F023FFD5E7A878FFF7D9F820B1D8
:10394400384601F0ACFA0230DFE7EA78DEE700BF80
:10395400C8340020EFD80200FBD80200CCD8020003
:10396400C7D802003BD902004DD90200D4D80200C6
:10397400E7D8020052D902006AD90200943E03003B
:10398400DFD80200E03E030024580300D1D802002F
:10399400D7D802002DE9F04786B0BDF83C70044644
:1039A400042F0E4615469946BDF838A064D9CDE9D2
:1039B400013A00920B4602463149042001F0DEFE32
:1039C4000DF11303039302230DF11408029320460F
:1039D400CDE900A84B462A463146FFF7BBFE044614
:1039E40000283CD19DF81300A0F14103012B29D8F4
:1039F400404601F04FFA0130C4B2E31CBB423BDA4B
:103A0400284601F01FFADFF88890002001F006FA3A
:103A14009DF8130001F002FAB9F800301A19512A7E
:103A24000BDC1848A7B23A461844414601F062F943
:103A3400B9F800301F44A9F8007000942B463246B0
:103A4400114916E0A0F14303012B04D8404601F0CC
:103A540026FA0230D0E7FFF705F80446CDE72846FA
:103A640001F0F0F9204601F0D9F92B463246074916
:103A74000094042001F082FE06B0BDE8F08700BF88
:103A840076D9020024350020CDD90200AAD902003B
:103A940014350020C37B10B504460BB1832010BD40
:103AA400C37C1BB1012B10D08120F8E7017D8289F2
:103AB4008B1C9A420CD3806801F0E6F90AF09CFA58
:103AC40040B9E37B002BE9D1EEE70AF0ADFAF7E762
:103AD4008020E4E70020E2E738B5C37B0446002BEE
:103AE400437D14BF8325C325012B13D10368028AA8
:103AF40059885879FFF7C2F960B123685B88032BB2
:103B040001D0062B02D1E37B13B18325284638BDAF
:103B14008125FBE7637D002BF8D12368228A59882D
:103B24005879FFF7A2F90028F0D023685B88002BAE
:103B3400E9D0032BEAD12046BDE83840FFF7AABFFD
:103B44007047012070470120704701207047B5205D
:103B5400704770470020704700207047002070476E
:103B640000207047002070470020704700207047F5
:103B7400002070470120704701207047B52070472E
:103B840000207047002070470020704700207047D5
:103B94007047B52070470020704770470020704779
:103BA400842070477047704770477047704770476C
:103BB400704701207047000070B51E460C4615463C
:103BC4000B490C4A0346002808BF0A460A4901204B
:103BD40001F0D4FD32460949012001F0CFFD2B4606
:103BE4002246BDE870400649012001F0C7BD00BF70
:103BF400F7D9020015D5020004DA02002ADA02001D
:103C040040DA020000207047034B1B681878012833
:103C140008BF0220704700BF102200207047002018
:103C24007047002070470020704700207047002034
:103C3400704700207047002070470020704770478D
:103C4400B52070470020704700207047704700205F
:103C540070477047704770477047B520704770478A
:103C640070477047002070477047022206210120E8
:103C740003F058BB42220621012003F053BB41222A
:103C84000621012003F04EBB01220621104603F059
:103C940049BB40220621012003F044BB0022062137
:103CA400012003F03FBB40220321012003F03ABB73
:103CB40001220321104603F035BB00220321012019
:103CC40003F030BB02220321012003F02BBB0122AD
:103CD4000021092003F026BB02292DE9F84F0546EF
:103CE400894604D84FF0000B5846BDE8F88F1BB145
:103CF4000429F7D942F004020C9C2A70002B50D0FE
:103D040003276B701B0AAB7002F018FF4FF000081A
:103D14009DF82830E85507F1020B464E0137EB5564
:103D24000B9A5FFA88F3D05C0028DDD0732861D841
:103D3400A0F14C03DBB2162B04F10407D4F800A065
:103D440039D826FA03F3DB4313F001033BD162684D
:103D54004C2804F1080794B225D14FF6FF7322468C
:103D64009C4214BF022300230BEB0400184481453A
:103D7400B8DBDE461846002851D19B441FFA8BFB62
:103D84005CB1BAF1000FADD005EB0B0022465146F1
:103D940000F0B0FFA3441FFA8BFB08F101083C4676
:103DA400BEE70127B0E753281BD1D2B2B2F1FF031B
:103DB40018BF0123D8E76C2805D1504601F06FF8ED
:103DC400023084B20CE0732804D1504601F062F84A
:103DD4000130F6E7A0F13004E3B2092B03D8A4B212
:103DE40000231A46C0E7A0F14103062B3FF67AAF41
:103DF4003738E6E7752808D076280CD078280CD018
:103E040077287FF46FAF042300E00123271D226885
:103E14000024A246A8E70223F8E70323F6E70EF1FD
:103E2400010C013805F80E20C0B2120A1FFA8CFEEC
:103E3400A1E700BF8100400010B5044C2060044895
:103E4400018004490A60044A136010BD84210020E3
:103E540088210020802100207C21002008B430B576
:103E640086B009AB53F8045B0C460D4905930988E9
:103E7400CDE90153009202460A4800230068FFF787
:103E84002BFF4FF48252084B1B681880074B1B68AA
:103E94005C80DA8006B0BDE8304001B0704700BFF6
:103EA4008821002084210020802100207C21002002
:103EB40007B5074B1B681B880192064A12680092DB
:103EC400054A1268FDF789FF03B05DF804FB00BFE3
:103ED40080210020842100207C2100200022FFF783
:103EE400E7BF0000024B1B6818715971704700BF8F
:103EF4007C2100202DE9F84F0C468F680A6805469E
:103F04003B49202006F071FC6368ABB93949202095
:103F140006F06BFC20200AF08FFFE2681AB13649E4
:103F2400202006F062FC3549202006F073FCBDE831
:103F3400F84F20200AF080BF002DEBD0E3681BB1BE
:103F44002F49202006F051FC3D46DFF8DC80DFF8E5
:103F5400DC90DFF8DCA0EE1B15F801BBF6B2BBF178
:103F6400000F04D12549202006F054FCD2E7236930
:103F74001BB14146202006F038FCBBF1750F27D059
:103F8400BBF1760F26D0BBF1770F25D0BBF1730FB1
:103F940024D0BBF1720F23D0BBF1710F22D0BBF13F
:103FA400620F21D0BBF16E0F20D01649164BBBF126
:103FB4002A0F18BF1946202006F017FC2369002B8E
:103FC400C9D053F826201149202006F00EFCC2E780
:103FD4004946F0E75146EEE70D49ECE70D49EAE7BB
:103FE4000D49E8E70D49E6E70D49E4E70D49E2E745
:103FF40024570300EDF30200532F0300EF2E0300B8
:10400400432F0300402F03003D2F03004D2F0300D7
:10401400072F0300132F03001D2F0300282F030075
:10402400332F0300ECF30200F6390300FC2E0300E7
:10403400F02E0300F0B50026204A92F87B30184495
:1040440052FA80F090F865C090F8665030461C4BE8
:10405400A5EB0C051F78EDB2F4B2A54225D90CEB03
:10406400060313445B7811B10CB92D2B17D0782BB0
:104074001FD0582B05D108B137240AE0013C012C8C
:1040840014D9602B17D8402BF6D83A2B34BF3024E0
:1040940000241B1BDBB29F4203D900FB073001360F
:1040A400DAE70523002082F87930F0BD10270020DC
:1040B400F5E70028E2D05724EBE700BF8A2100206F
:1040C4003E1B00200023FF21084A137082F8783039
:1040D40082F8653082F8773082F8793082F87A1085
:1040E40082F87B30024A1360704700BF8A210020A7
:1040F400E0340020034B93F8770093F87B30C01A28
:10410400C0B270478A2100200021FFF793BF00004E
:1041140010B50A4B93F87B20024453FA82F292F8CA
:10412400652013445C78A4F12D0359425941FFF7EB
:1041340081FF2D2C08BF404210BD00BF8A21002002
:1041440030B50C4A92F87B300344C043DBB2C00F55
:1041540039B1D51895F8664095F86550641B241A52
:104164000C7042FA83F393F865301844024B1844F8
:1041740030BD00BF8A2100208B210020F7B51546F1
:104184000E460DF107011C46FFF7DAFF9DF80730D4
:104194000746AB4288BF8DF807501CB19DF8074015
:1041A4002C1BE4B222463046002100F0FFFD3019FA
:1041B4009DF80720394600F09DFD9DF8070003B0E7
:1041C400F0BD38B50C4601230822FFF7D7FF04F1F0
:1041D4000803621E043413F8011D12F8015FA342A0
:1041E4001D701170F7D138BD38B505460146012060
:1041F400FFF780FED5E901436CB91C46084D2368DE
:1042040063B12946202006F0F0FA21460020FFF78A
:1042140071FE1434F3E71B786E2BEFD038BD00BF6A
:10422400F639030008B50449202006F0DEFABDE89B
:10423400084020200AF000BEB02E030038B5FFF776
:10424400F1FF0024054D61191434631953F8143C2B
:1042540003B938BD0020FFF74DFEF4E764DA02002D
:104264002DE9F84F1F4B204D53F820201F492020E3
:1042740006F0BBFA2B681BB9BDE8F84FFFF7DEBFA9
:104284001B4FFFF7CFFF0026B946DFF86CA097F865
:104294007B30F4B2013B9C4204DB2868BDE8F84F54
:1042A400FFF7A2BF47FA86F393F8658000234C44D6
:1042B400C84494F8662094F8651003F1010B521A6F
:1042C400DBB2D2B2934205D30A49202006F08DFA1C
:1042D4000136DCE743445A785146202006F085FA3B
:1042E4005B46E6E7401B0020E0340020AB2E0300D1
:1042F4008A210020F7390300A43F03002DE9F74F7A
:10430400824C94F87730002B00F0A280804B671C1D
:104314001B7813F0010F1FD000257E4E14E06319A3
:1043240093F8662093F865302020D21A44FA85F376
:1043340093F86510D2B239440AF079FD3146202051
:1043440006F053FA0135EDB294F87730AB42E6D873
:104354007149202006F049FA002694F87730DFF8F6
:10436400C4E101936D4B4FF00008714645461EF8B9
:10437400012B91F801C007EB020AACEB020C5FFAC7
:104384008CFC1868002853D00138D14619E02AB9AA
:10439400002D4BD04FF001081433F2E719F8011B3C
:1043A400A1F1410BBBF1190F98BF2031A2F1410BD0
:1043B40098BFC9B2BBF1190F9CBF2032D2B28A4256
:1043C400EAD1A9EB0A01614510F8012FDFD1002AD7
:1043D400DED11D46524B01361D6094F87B30F6B297
:1043E400013384F87B30D5E90123002A36D01B78C9
:1043F4006E2B32D03F2B24D04FF000094FF0070A28
:104404004F464FF0040B5FFA89F0811994F877C096
:10441400AA68C9B28C45D35D28D893B117447B7878
:104424002A2B1CBF032384F879300AE01D46B3E726
:10443400B8F1000F01D1002DCCD10223002584F85E
:10444400793094F8790000285CD1686800F030F97C
:1044540003B0BDE8F04FFFF735BE1346019AB242F0
:1044640081D803221D4684F87920EAE7732B08D803
:10447400712B0AD2002B43D0622B30D084F879A060
:1044840016E0A3F17502022AF8D8752B1ED0762BFC
:104494001FD0732B20D0722B47F6FF7818BF4FF034
:1044A400FF380121FFF7C6FD404501D984F879B0F2
:1044B400AB6809F101093B445B782A2B94F8793005
:1044C4001CBF0137FFB2002B9DD0BAE74FF0FF08A5
:1044D400E7E74FF6FF78E4E74FF07F08E1E794F869
:1044E4007B30184454FA80F090F8653023445B78AC
:1044F400222BDDD07B2BDBD0052384F87930D7E762
:104504000323FAE7FFF7ACFEA2E700BF8A210020ED
:1045140006220020F7390300ED2E030064DA0200BE
:10452400E0340020EF2100202DE9F34106460D463A
:104534004FF000085C4C5D4F66B90DF10701284649
:104544000AF06EFC78B1262800F0A980012384F8D3
:1045540079304BE0002D00F0A28016F8013B013DBC
:104564008DF80730EDB23A789DF807300D2A3B708C
:1045740001D10A2BE0D00D2B0CD0A3F10A02514239
:10458400514122788846042AD6D8DFE802F0051D76
:10459400263C31000121F4E721B1FFF7AFFE4FF0D3
:1045A4000108C9E7202B63D0222B07D102232370F3
:1045B40094F87820642A5DD10623C8E77B2B01D1C7
:1045C4000323F4E70123F2E709B9202BF0D194F88F
:1045D4007730112B3FD10323B9E7222BF7D00029E1
:1045E400E6D005234FF0010884F8793004232370C2
:1045F400B8F1000FA0D094F8790008B1FFF730FEAD
:10460400FFF760FD98E77D2B94F87A0003D1FF282B
:10461400DDD005239BE7602B13D8402B13D8392B0F
:104624008CBF002230229A1AD2B20F2A10D8FF2847
:104634000BD0FF2302EB00128DF8072084F87A30A8
:10464400B6E75722EFE73722EDE784F87A2073E7DD
:10465400202BDED170E70133DBB294F8782084F8A4
:104664007730234483F8652000232370002994D1F4
:10467400884661E72378012B09D19DF80730A3F11F
:10468400410119299CBF2033DBB28DF807309DF816
:104694000710A3180132597084F878204CE740467B
:1046A40002B0BDE8F08100BF8A210020072200206B
:1046B40010B5054B0446187800F006FCA047BDE889
:1046C400104000F008BC00BF142200207FB501A8F0
:1046D400FDF7E4FD01AA0349022001F04FF807B0F9
:1046E4005DF804FB423203001822FF232DE9F04F4A
:1046F4008DB00DEB020000218DF80A3028F0E2FAAB
:104704000DF10B014FF0FF30FFF71AFDFFF7DEFF4D
:1047140000229D49022001F031F804A8FEF77CF83C
:1047240006A90DF10A00FEF77DF80220974901F071
:1047340041F8022001F00EF810B104A800F090FF37
:104744009DF922309DF823209149022001F016F8AA
:1047540019F090F9831EDBB2FC2B05462AD88D494B
:10476400022001F00BF801248B4E8C4FDFF8988265
:1047740022463146022001F01DF803A9E0B219F0E7
:104784002BF99128024600F09580932800F092803E
:10479400002840F094809DF90C109DF80E30009193
:1047A4009DF80D207E49022000F0E8FF0134E3B2B9
:1047B400AB42DDD3BDF82040FDF768FE2246034638
:1047C4007849022000F0F6FF0220774900F0F2FF5A
:1047D400022000F0BFFF10B106A800F041FF7349AA
:1047E400022000F0CBFF1EF073FA04461EF06AFAB2
:1047F400224603466E49022000F0C0FFFEF734F85B
:104804006C49022000F0D6FF9DF80A20FF2A5BD0F5
:104814006949022000F0CEFF6449022000F0AEFF97
:10482400FEF70CF8654A03466549022000F0A6FF2E
:1048340019F09AF863490246022000F0BBFFFEF724
:104844000BF80446FEF70EF8224603465E490220A2
:1048540000F094FFFEF730F95C490246022000F0B4
:104864008DFF0025DFF8A481FEF726F9ECB2A04203
:104874002FD801225649022000F080FF554C002019
:1048840000F022FB544B00225449022000F076FF32
:10489400236853B11A785249022000F06FFF23684D
:1048A40050495A78022000F069FF00F014FB0DB063
:1048B400BDE8F08F3946022000F060FF76E74146FC
:1048C400022000F05BFF71E74749022000F072FF0D
:1048D400A2E7464B204603EB0416D6F80890FEF7F1
:1048E4001FFB82462046FEF7EDF8414F002814BF17
:1048F400C346BB462046FEF713FB02F04DF80028E2
:1049040014BF404638465B4600905246394902205F
:1049140000F050FFB1797388327B0191B188022095
:104924000091354900F02AFF0026DFF8E4B099F839
:104934000430F4B2A34201D8013595E714235C4353
:10494400D9F800702D4807EB040A9AF90C202C4979
:104954003B5B11EA220138BF014602200A46594650
:1049640000F028FF022000F0F5FE38B150463C5B11
:10497400FEF7C6F80146204602F072F821490220EB
:1049840000F0FCFE0136D2E7F12F03000C300300E7
:104994003830030013300300293003004D30030086
:1049A400303003006330030081300300A3D40200DD
:1049B4008A300300AB300300B7D40200BE300300DA
:1049C400C7300300D5300300E9300300F83003009A
:1049D4006C3103001022002078310300863103007B
:1049E40092310300A4310300B6300300C834002020
:1049F400D02F03000331030023310300E52F03000C
:104A0400D92F0300EF2E030058300300C82F0300F2
:104A14005531030008B50020FFF776FBBDE80840D8
:104A240080B200F015BF08B50020FFF76DFBBDE8AC
:104A3400084080B200F020BF70B50024064D074E38
:104A44001434631953F8142C02B970BD3146022092
:104A540000F094FEF4E700BF64DA02002457030078
:104A640005F03EBB08B50020FFF74EFB054B10F0E8
:104A7400FF0F1A7814BF42F0010222F001021A70EB
:104A840008BD00BF062200202DE9F84325F076FD7D
:104A9400002507460F4EDFF84880DFF84890EBB258
:104AA40056F833400CB9BDE8F88358F8232049463A
:104AB400012000F07FFE23782BB90749012000F084
:104AC4005DFE0135EBE762680449D21B012000F06A
:104AD40055FEF6E778D10200333203003C3203007E
:104AE400F01A00202C32030010B521F0D5FF044643
:104AF4000C49012000F05EFE022C0DD0032C0DD0D9
:104B0400012C0DD10849012000F054FEBDE81040ED
:104B14000649012000F032BE0549F4E70549F2E7F1
:104B24000549F0E7BD310300DA310300EFF3020079
:104B3400E0310300EF310300FF3103002DE9F843B6
:104B44000025114EDFF85080FDF7B6FFECB2A0420D
:104B540001D8BDE8F8832701204616F80790FDF731
:104B6400B1FF0A4B4A46002818BF434608490120B2
:104B740000F020FEF05DFDF7C2FE0649012000F0C2
:104B8400FDFD0135E0E700BFC8340020DC3203003E
:104B940021320300EF2E0300D232030008B50020B7
:104BA400FFF7B2FA094BC0B21B681B681978A1F170
:104BB400650359425941FEF783FB28B9BDE8084013
:104BC4000349012000F0DABD08BD00BFE034002035
:104BD4000732030049BA89B24840C0F30311414087
:104BE400080380B24840C3B280EA43107047000013
:104BF400014B1878704700BF08220020014B187041
:104C0400704700BF0822002015F07EBC7047704733
:104C140070477047704770477047704770477047D8
:104C240070477047704700207047704770470020F6
:104C3400704700207047704770477047704770474F
:104C4400704770472DE9F0470024204DDFF89C9011
:104C5400DFF89CA05FFA84F8404618F017FFFF289D
:104C640006460CD122461A49287805F0D3FD287847
:104C740001340AF0E1F8142CECD1BDE8F087154BAF
:104C840047B213EA270338BF534659F82420124980
:104C9400287805F0BFFD002FE9DA14B1B8F1030F4D
:104CA40008D10E4B16F0010F0D49287818BF19468C
:104CB40005F0B0FD0A2CDAD10A4B16F0010F0A49AF
:104CC400287818BF194605F0A5FDD0E73D1B002044
:104CD400E5320300EF2E03000D330300A832030076
:104CE400BE320300D0320300DA3203005432030030
:104CF400493803008842F0B54FEA92031AD80446B3
:104D04000D469BB29E00871904370434BC4205F15A
:104D140004053AD1C3EB8333314402EB8303013EF0
:104D2400304411FA83F3994220D011F8012B00F892
:104D3400012FF8E7541E204421440D4604469BB23B
:104D4400A0EB8306043E043CB442A5F104050ED155
:104D54006FF003045C43C3EB833302EB830321440E
:104D64009BB201342044CB1A994209D1F0BD2F796A
:104D74002771EF78E770AF78A7706F786770E2E714
:104D840011F8012900F8012DEEE715F804CC04F818
:104D940004CC15F803CC04F803CC15F802CC04F8C1
:104DA40002CC15F801CC04F801CCAEE702449042E1
:104DB40000D1704700F8011BF9E710B5013801393B
:104DC4000AB9104606E010F8014F11F8013F9C4261
:104DD40001D0E01A10BD013A92B2F1E710B50024F7
:104DE400094B1C70FDF752FB084B214618805222D8
:104DF4000748FFF7DBFF074B21461C800C22BDE868
:104E040010400548FFF7D2BF692200202235002058
:104E140024350020143500201635002007490B885E
:104E2400512B9FBF064AD05401339BB29DBF0B80C8
:104E340003F1FF3398180020704700BF1435002099
:104E44002435002038B50546C0B2FFF7E7FF044615
:104E5400280AFFF7E3FF14B1002808BF0024204606
:104E640038BD194491420ADC0144002003B970475B
:104E740011F8012D013B02EB0020DBB2F6E7002024
:104E840070470423FFF7EDBF08B50223FFF7E9FFDE
:104E940080B208BD0078FF2808BF0020704708B51D
:104EA40002220021FFF7F0FF4FF6FF73984208BF7C
:104EB400002008BD024B034A00201A60704700BF5F
:104EC4001022002054D70200002814BF70200020B4
:104ED400704700207047002070477047014B1878D6
:104EE400704700BFC834002008B5FDF781FFFF28D4
:104EF4000CBFFF20002008BD08B5FFF7F5FFFF2811
:104F04000CBFA320002008BD002303707047FCF7EA
:104F14009CBD10B5044618220021FFF747FF204628
:104F2400FEF736FE0020FFF7EFF8E0720120FFF7EE
:104F3400EFF8A0720220FFF7E7F82081FFF7DAF814
:104F4400032808D90320FFF7DFF8E37A03F01F03EF
:104F540043EA4010E07210BD7FB518220021684674
:104F640027F0B0FE6846FFF7D4FF6846FDF774F9F2
:104F7400044A03460449022000F000FC07B05DF82F
:104F840004FB00BF445903009834030010B500200B
:104F9400FFF7BAF8041C4FF0010018BF0124FFF713
:104FA400B3F80849A222002818BF014620461AF087
:104FB400BFFCBDE810400346034A0449022000F048
:104FC400DDBB00BF00F8FF07EC00030098340300CA
:104FD40070B50020FFF798F804460120FFF794F815
:104FE40005460220FFF790F8E4B2C2B2201C29461D
:104FF40018BF01201AF0F7FCBDE870400346024ACE
:105004000249022000F0BABBE434030098340300E0
:105014007FB56846FFF77DFF6846FDF7FFF8044A51
:1050240003460449022000F0A9FB07B05DF804FB25
:1050340007FF02009834030008B50C490020FFF76D
:10504400C0F80A48FEF707FE0220094900F0B2FB47
:10505400022000F07FFB10B1044800F001FBBDE822
:1050640008400449022000F089BB00BF5F220020F1
:1050740045340300EF2E030010B51CF02BF8BDE8F7
:1050840010400346024A0349022000F077BB00BFE8
:10509400CD2803009834030010B50020FFF734F83E
:1050A400002104464FF0FF30FFF74AF80178E0B2E0
:1050B400A1F1620359425941BDE81040FCF7D8BE42
:1050C40008B5FEF7CAFDBDE80840024601490120C3
:1050D40000F054BB0234030008B5FEF74FFDBDE8F1
:1050E400084002460149012000F048BB1634030081
:1050F40010B50020FFF708F80121C4B2A140002335
:10510400FE224FF6FF7021F081F82246BDE81040E0
:1051140003460249022000F031BB00BF28340300DB
:10512400032307B502A820F8043D1BF0DDF9044968
:105134000246022000F022FB03B05DF804FB00BF2E
:105144007C34030008B50020FEF7DEFFC0B228B1AE
:10515400BDE808400349012000F010BB024B187061
:1051640008BD00BFF93403001422002007B56846C7
:10517400FDF752FBFDF78AF908490246012000F0C9
:1051840019FB684600F06CFAFDF782F904490246FF
:10519400012000F0F3FA03B05DF804FB533403007C
:1051A4006C34030073B50020FEF7AEFFC4B20120D7
:1051B400FEF7AAFFC5B20220FEF7AAFF46B2FEF729
:1051C40099FF032812D90320FEF79EFFC0B2009076
:1051D40033462A462146012024F0C0FD40B901206F
:1051E400084902B0BDE8704000F0C8BA0020EEE7FC
:1051F4000090054B054A0649012000F0BFFA02B0B1
:1052040070BD00BFA0340300A83403002C000300C9
:10521400BC34030007B5012024F0A2FD034638B9CD
:105224000120084A084903B05DF804EB00F0A6BA6F
:105234000090044B054A0649012000F09FFA03B090
:105244005DF804FBA8340300D13403008800030094
:10525400BC340300037837B513F0050F04460CD0B3
:105264004388062B14D182688388526814491278C3
:1052740002200092134A00F081FA2378012B1DD0FA
:105284000220104A104903B0BDE8304000F076BA5D
:105294002BB982880D49022000F070FAEDE7012B4A
:1052A400EBD185680A49022000F084FA284600F010
:1052B400D7F90849022000F061FADEE703B030BDF7
:1052C40024350300BC190300743503004035030082
:1052D4005C350300EF2E0300094B02201B681B689A
:1052E4001B78652B0CBF01220022064B1A7019781B
:1052F400054A064B002908BF1A46054900F03EBA84
:10530400E03400203C1B0020CEFB020094FB020092
:10531400A7360300FEF794BC37B50020FEF7F4FE71
:1053240005460120FEF7F0FE054B82B21C88054BB2
:10533400A9B200932046012301F069F803B030BDFF
:105344000A1C0020595200002DE9F04F002691B0AC
:10535400374D0BAC0FCD0FC42B68364902202360A8
:1053640000F00CFA3446344FDFF8DC80DFF8DC90D0
:10537400FDF768FAF5B2A8420AD8FDF763FA2246A7
:1053840003462E49022000F0F9F911B0BDE8F08F70
:1053940007A9284611F046FB0246002842D19DF891
:1053A4001C30032B84BF04238DF81C309DF81C3063
:1053B400002B35D02A464146022000F0FBF99DF827
:1053C4001C3010AA02EB830353F8142C4946022024
:1053D40000F0F0F99DF82030BDF81E2028469DF815
:1053E40029A09DF81DB00593049211F013FB049AB3
:1053F400059B02900192009302205B46524610499D
:10540400013400F0D7F90220E4B200F0A3F918B196
:105414000DF1210000F024F90A49022000F0AEF950
:105424000136A5E73946022000F0A8F9F8E700BFE5
:105434001035030086350300D4350300F43503002A
:10544400B3350300EF2E03002B3003002457030071
:1054540011F0C4BC08B50020FEF756FEBDE80840B4
:10546400C0B2FDF74DB80000084B1B681B685B78A1
:10547400652B02D1002001F077BB6E2B01D10120F6
:10548400F9E7662B01D10220F5E77047E0340020EC
:10549400054B1B681B685B78A3F1660253425341BA
:1054A400024A1370704700BFE0340020321C002011
:1054B40010B5002086B0FEF727FE04466946012099
:1054C400FEF77FFE0123102202A90220FEF756FEFA
:1054D400E1B202AB6A46002011F0E5F9044602206D
:1054E40000F038F918B121460448FCF7A3FC04493C
:1054F400022000F043F906B010BD00BF9A36030045
:10550400EF2E030010B58CB00023122207A902204D
:10551400FEF734FE03AA014607A8FDF7F5F9044691
:1055240088B1BD2802D11449022002E0022803D127
:10553400124900F023F904E002461149022000F068
:105544001DF90CB010BD01A90120FEF73AFE20465A
:10555400FEF7DAFD03ABC1B201AA204611F0A3F9AC
:105564000446022000F0F6F818B121460548FCF77D
:1055740061FC0549D8E700BF1D360300403603002F
:105584007B3603009A360300EF2E03007FB500201C
:10559400FEF7BAFD04460220FEF7B6FDC6B2304659
:1055A400FFF7AAFCE4B20546E8B901208DF8000033
:1055B400FEF7AAFDADF8020003208DF80160FEF7A6
:1055C400A3FD0DF105018DF804000420FEF7F9FD9B
:1055D40011F0D3FC69468DF80D00204611F088FACD
:1055E4000546FFF778FC2B4622460349022000F0CB
:1055F400C5F804B070BD00BF0B360300F8B506460D
:105604000C4615461F4600F0A5F818B1013C254488
:10561400AC4200D1F8BD14F8012F3946304600F0F1
:10562400C9F8F5E730B4044D044C002B14BF2B46E5
:10563400234630BCFFF7E2BFCF360300204003000F
:1056440070B5054608460C46FFF724FC611C82B27F
:10565400024B2846BDE87040FFF7D0BFA43F0300CB
:10566400024600B50C49C3790888117889B00691BF
:105674005178059191780491D1780391117902912F
:10568400517901919279054900923E2200F092F8F5
:1056940009B05DF804FB00BF16220020D3360300D6
:1056A4002DE9F04705468846914600240E4EDFF862
:1056B40048A00E4FAC4201D1BDE8F08708EBC4010D
:1056C400308853460822FFF799FF01343088B9F136
:1056D400000F07D1064AA54208BF3A46054900F023
:1056E40069F8E7E73A46F9E716220020ED2E0300B1
:1056F400EF2E030023570300CF3603000146002298
:105704000220FFF7CDBF00002DE9F0410E4C064604
:10571400208800F01FF8A8B100250C4FDFF8308076
:10572400F3070AD518B94146208800F043F82088C9
:105734002A46394600F03EF8002001351B2D4FEA79
:105744005606EDD1BDE8F08116220020DC440300AA
:1057540039D402004FF6FF73984208D0030A08D1E7
:10576400054B1B78034214BF012000207047012021
:1057740070470020704700BF0C1C00200EB417B502
:1057840005AA52F8041B04460192FFF7E3FF40B157
:10579400202005F052F80549202005F026F8044B96
:1057A4001C8003B0BDE8104003B07047ED2E030029
:1057B400162200200EB417B505AA52F8041B04469D
:1057C4000192FFF7C7FF20B1202005F036F8034B04
:1057D4001C8003B0BDE8104003B0704716220020BF
:1057E400F7B500240E4F0F4E0F4D0120A04080B29C
:1057F40057F82420FFF7AEFF002814BF3046284690
:105804001346009022460949202005F003F801348C
:10581400202009F011FB032CE7D103B0F0BD00BF39
:10582400E8360300F8360300FC360300FF360300B5
:105834000122FF210148FFF7B9BA00BF0C1C002068
:10584400012200210148FFF7B1BA00BF0C1C00205F
:105854000122430100F0070002FA00F003F47F4341
:1058640003449BB21A0A01BF02490A7813430B701E
:10587400704700BF0C1C00200122430100F0070008
:1058840002FA00F003F47F4303449BB21A0A01BFF7
:1058940002490A7822EA03030B7070470C1C0020AB
:1058A40013B503680446587901F076F888B923687B
:1058B4005A88032A0DD0E17C5B790120CDE90021CF
:1058C4000849094AFFF75AFF0121204601F009FA65
:1058D40005E02046FEF700F901460028F5D1012035
:1058E40002B010BD2337030094FB02002DE9F04FF2
:1058F400427D0368002A14BF802240228BB00546F3
:1059040090F813B08668878990F814905879B3F8A2
:105914000280059201F040F898B9BBF1050F04D854
:105924002D2323FA0BF3DC070BD4B8F1030F08D0B3
:10593400A4490120FFF722FF0121284601F0D1F9F3
:105944008FE1EB7B1BB12A8A002A00F06B820021D5
:105954009D4A1180697D9246002914BF10201820A9
:105964000BB140F00400FFF759FAEB7B13B1288A1E
:10597400FFF768FAA87C1FFA89F4FFF74FFABBF126
:10598400160F00F24982DFE81BF017007401610072
:105994004E00A80161006601B0017001B801C001A8
:1059A400C8012D01DE01470247024702F2011B0232
:1059B400F20131022D01DE0104204346834A844969
:1059C400FFF7DCFE0120FFF729FA631CBB4202DB70
:1059D40001F03AF945E13A4621463046FFF754FAD8
:1059E40081462B684A465879BAF800304146C3F1DB
:1059F40052039BB201932B8A0093059BFDF720F879
:105A040070B92B684A465879BAF800304146C3F158
:105A140052039BB201932B8A0093059BFDF7BAFFB7
:105A2400A21C94B2D1E70420FFF7F8F900230693EF
:105A3400A31CBB4225DB069B002BC9D1EB7B2C7D31
:105A4400002B0CBF022204225F4B1A800420FFF7B4
:105A5400E5F900239A46069304F103094F4560DCF7
:105A6400BBF1050F00F0FD80BAF1000FB0D1069B29
:105A7400002B40F0A28057490420FFF77FFE8021CD
:105A84005BE73A4621463046FFF7FEF9331993F8AF
:105A940002A007905046FDF71FF8002839D0E01CFB
:105AA4003044FFF7F7F901305FFA80F95046FDF70B
:105AB40013F820B109EB0403FB1A032B2ED42B6833
:105AC400079A5879E31C334401932B8ACDF808A034
:105AD40000934146059BFDF729FE8246A0B1069B33
:105AE40050460133DBB20693FFF798F90798FFF7A6
:105AF400A9F9424638490420079BFFF73FFE524666
:105B040036490420FFF73AFE09F10302224494B215
:105B14008EE75046FCF7A6FF8146C7E74FF0800AA0
:105B2400DDE73A4621463046FFF7AEF933199B7854
:105B3400079018460893FCF7CFFFB14440B348469A
:105B4400FFF7A8F90130C3B209932B68079A587973
:105B5400089B4146CDE901932B8A0093059BFDF7F1
:105B64009DFD8146079B42461B490420FFF722FE08
:105B7400B9F1000F11D1069B19490133DBB204209E
:105B84000693FFF7FBFD099A0332224494B263E7BC
:105B94000898FCF767FF0990D7E70AF10103484624
:105BA4005FFA83FAFFF73AF90798FFF74BF94A4689
:105BB4000A490420FFF7E2FDE5E75046FFF72EF916
:105BC40006E700BFD02F030014350020523703002E
